:100000000C942A000C94CC1E0C94FF1E0C94321FEE
:100010000C9447000C9447000C9447000C94470044
:100020000C9447000C94DE220C9447000C9447007B
:100030000C9447000C945B240C9447000C948E2481
:100040000C9447000C9447000C9447000C94470014
:100050000C94470011241FBECFE5D8E0DEBFCDBF12
:1000600011E0A0E6B0E0EAE1F6E602C005900D92EC
:10007000AA3DB107D9F712E0AAEDB1E001C01D9287
:10008000AD30B107E1F70E94C3310C940B330C94EF
:100090000000EF92FF920F931F937B018C0120E0F1
:1000A00030E040E05FE40E94DA1088238CF0C80161
:1000B000B70120E030E040E05FE40E94A60E0E941D
:1000C0003A119B01AC01205030404040504806C0DE
:1000D000C801B7010E943A119B01AC01B901CA01E4
:1000E0001F910F91FF90EF900895AEE5B0E0EBE720
:1000F000F0E00C94D432A8E04E010894811C911CCD
:10010000F4016A2E11926A94E9F729833A834B83AA
:100110005C836D837E838F839887CE010996FC0173
:100120001192AA95E9F7A986BA86CB86DC86ED8678
:10013000FE860F87188B29843A844B845C84ED8477
:10014000FE840F85188969807A808B809C806DA6DB
:100150007EA68FA698AA6D807E808F809884E114F9
:10016000F1040105110509F0B3C36214730484049A
:10017000950408F03DC100E0201600E0300601E0E3
:10018000400600E0500688F41FEF211631044104B8
:10019000510439F030F048E0E42EF12C012D112DFE
:1001A00018C0EE24FF24870114C020E0221620E0AE
:1001B000320620E0420621E0520630F038E1E32E1C
:1001C000F12C012D112D05C020E1E22EF12C012D85
:1001D000112DD201C1010E2C04C0B695A79597959B
:1001E00087950A94D2F781599F4FDC012C9180E2C8
:1001F00090E0A0E0B0E08E199F09A00BB10B7C014C
:100200008D01E21AF10801091109E114F104010557
:100210001105A1F10E2C04C0220C331C441C551CEA
:100220000A94D2F7A40193010E2C04C0220F331FAD
:10023000441F551F0A94D2F780E290E08E199F095F
:100240006DA47EA48FA498A804C0969487947794F4
:1002500067948A95D2F7622A732A842A952AADA4D4
:10026000BEA4CFA4D8A804C0AA0CBB1CCC1CDD1C07
:10027000EA94D2F7ADA6BEA6CFA6D8AA6201EE2414
:10028000FF24CDAADEAAEFAAF8AE92018101207068
:10029000307009AF1AAF2BAF3CAFC401B301A70157
:1002A00096010E94B2327B018C01C401B3012DA9D9
:1002B0003EA94FA958AD0E94B232C901DA013C01F2
:1002C0004D01C401B30129AD3AAD4BAD5CAD0E9407
:1002D0007F329B01AC018701FF24EE24ADA4BEA4B4
:1002E000CFA4D8A8C601AA27BB2757016801A82A0E
:1002F000B92ACA2ADB2AA216B306C406D506E0F438
:1003000008946108710881089108A20CB31CC41CF0
:10031000D51CA214B304C404D50470F0A216B3060D
:10032000C406D50648F4089461087108810891084C
:10033000A20CB31CC41CD51CA21AB30AC40AD50A49
:10034000C601B5012DA93EA94FA958AD0E94B232F0
:100350007B018C01C601B5012DA93EA94FA958AD5D
:100360000E94B232C901DA015C016D01C601B5011A
:1003700029AD3AAD4BAD5CAD0E947F329B01AC0123
:100380008701FF24EE248DA59EA5AFA5B8A9A07076
:10039000B070E82AF92A0A2B1B2BE216F306040791
:1003A0001507C0F40894A108B108C108D108E20CEF
:1003B000F31C041D151DE214F3040405150550F08B
:1003C000E216F3060407150728F40894A108B108FB
:1003D000C108D108D3019927882786017501E82A29
:1003E000F92A0A2B1B2BE9AAFAAA0BAB1CABCFC428
:1003F000211431044104510471F461E070E080E0A3
:1004000090E020E030E040E050E00E94B232C901CC
:10041000DA011C012D0100E0201600E0300601E0A9
:10042000400600E0500688F41FEF21163104410415
:10043000510431F028F048E050E060E070E017C06F
:1004400040E050E060E070E012C020E0221620E0C2
:10045000320620E0420621E0520628F048E150E052
:1004600060E070E004C040E150E060E070E0D20184
:10047000C101042E04C0B695A795979587950A9457
:10048000D2F781599F4FDC012C91E0E2EE2EF12C46
:10049000012D112DD801C701841B950BA60BB70B9D
:1004A000821B9109A109B1090097A105B10561F469
:1004B00064015301A218B308C408D50831E0632EC3
:1004C000712C812C912C1EC16F968FAF6F97082EC7
:1004D00004C0220C331C441C551C0A94D2F7EE2D88
:1004E000E81B640153010E2E04C0D694C794B79440
:1004F000A7940A94D2F7A40193016F960FAC6F975B
:1005000004C0220F331F441F551F0A94D2F76DA455
:100510007EA48FA498A80E2E04C0969487947794F6
:1005200067940A94D2F784017301E22AF32A042B18
:10053000152BE9A6FAA60BA71CA73201882499243B
:10054000920181012070307021960CAF1DAF2EAF4B
:100550003FAF2197C601B501A40193010E94B232B9
:100560007B018C01C601B501A40193010E94B23246
:10057000C901DA0125968CAF9DAFAEAFBFAF25970D
:10058000BC01CD0121962CAD3DAD4EAD5FAD2197A7
:100590000E947F329B01AC018701FF24EE24A9A4B5
:1005A000BAA4CBA4DCA4C601AA27BB275C016D01B9
:1005B000AE28BF28C02AD12AA216B306C406D50683
:1005C00060F525966CAD7DAD8EAD9FAD25976150E4
:1005D00070408040904025966CAF7DAF8EAF9FAF4E
:1005E0002597A20CB31CC41CD51CA214B304C404CC
:1005F000D50498F0A216B306C406D50670F461506F
:1006000070408040904025966CAF7DAF8EAF9FAF1D
:100610002597A20CB31CC41CD51CA21AB30AC40A89
:10062000D50AC601B501A40193010E94B2327B0133
:100630008C01C601B501A40193010E94B232C90127
:10064000DA013C014D01C401B30121962CAD3DAD51
:100650004EAD5FAD21970E947F329B01AC018701B7
:10066000FF24EE2489A59AA5ABA5BCA5A070B07007
:1006700057016801A82AB92ACA2ADB2AA216B3069A
:10068000C406D506E0F40894610871088108910851
:10069000A20CB31CC41CD51CA214B304C404D504FE
:1006A00070F0A216B306C406D50648F40894610893
:1006B000710881089108A20CB31CC41CD51C8DA51F
:1006C0009EA5AFA5B8A96F960FAC6F9704C0880F11
:1006D000991FAA1FBB1F0A94D2F78DA79EA7AFA789
:1006E000B8ABA21AB30AC40AD50A2596ECACFDAC85
:1006F0000EAD1FAD2597D70199278827682A792A3B
:100700008A2A9B2A82012227332729960CAF1DAF04
:100710002EAF3FAF2997A2019101407050702D96E6
:100720002CAF3DAF4EAF5FAF2D97C601B5012996F7
:100730002CAD3DAD4EAD5FAD29970E94B2327B012D
:100740008C01C601B50129962CAD3DAD4EAD5FAD16
:1007500029970E94B232C901DA0161968CAF9DAF30
:10076000AEAFBFAF6197BC01CD012D962CAD3DADB5
:100770004EAD5FAD2D970E947F329B01AC0187018A
:10078000FF24EE24ADA4BEA4CFA4D8A8C601AA27F6
:10079000BB2757016801A82AB92ACA2ADB2AA21650
:1007A000B306C406D50660F561966CAD7DAD8EAD21
:1007B0009FAD6197615070408040904061966CAFF2
:1007C0007DAF8EAF9FAF6197A20CB31CC41CD51C2C
:1007D000A214B304C404D50498F0A216B306C40648
:1007E000D50670F4615070408040904061966CAFC7
:1007F0007DAF8EAF9FAF6197A20CB31CC41CD51CFC
:10080000A21AB30AC40AD50AC601B50129962CADAD
:100810003DAD4EAD5FAD29970E94B2327B018C0198
:10082000C601B50129962CAD3DAD4EAD5FAD299702
:100830000E94B232C901DA015C016D01C601B50145
:100840002D962CAD3DAD4EAD5FAD2D970E947F3204
:100850009B01AC018701FF24EE248DA59EA5AFA5C9
:10086000B8A9A070B070E82AF92A0A2B1B2BE2164F
:10087000F30604071507C0F40894A108B108C108DD
:10088000D108E20CF31C041D151DE214F304040549
:10089000150550F0E216F3060407150728F408942E
:1008A000A108B108C108D1086196ECACFDAC0EAD51
:1008B0001FAD6197D7019927882796018501082BDD
:1008C000192B2A2B3B2B09AB1AAB2BAB3CAB62C2CF
:1008D0006E147F048006910608F451C220E0E216EF
:1008E00020E0F20621E0020720E0120788F43FEF43
:1008F000E316F1040105110531F028F048E050E05D
:1009000060E070E017C040E050E060E070E012C0CE
:1009100040E0E41640E0F40640E0040741E014073C
:1009200028F048E150E060E070E004C040E150E0B1
:1009300060E070E0D801C701042E04C0B695A79509
:10094000979587950A94D2F781599F4FDC012C9196
:1009500030E2A32EB12CC12CD12CD601C501841BB1
:10096000950BA60BB70B821B9109A109B109009742
:10097000A105B10589F4E614F7040805190508F482
:10098000F2C16DA47EA48FA498A862147304840499
:10099000950408F0E8C1F3C16E968FAF6E97082EEC
:1009A00004C0EE0CFF1C001F111F0A94D2F76A2D21
:1009B000681BD201C101062E04C0B695A795979574
:1009C00087950A94D2F75C016D01AE28BF28C02A32
:1009D000D12AADA2BEA2CFA2D8A6720161016E96A5
:1009E0000FAC6E9704C0CC0CDD1CEE1CFF1C0A94EF
:1009F000D2F7C9A2DAA2EBA2FCA264015301062E2F
:100A000004C0D694C794B794A7940A94D2F7D4019B
:100A1000C3016E960FAC6E9704C0880F991FAA1F72
:100A2000BB1F0A94D2F7EDA4FEA40FA518A904C019
:100A300016950795F794E7946A95D2F73701480120
:100A4000682A792A8A2A9B2A6D8E7E8E8F8E98A29A
:100A5000EDA0FEA00FA118A53801882499249801C3
:100A600087012070307065960CAF1DAF2EAF3FAF81
:100A70006597C601B501A40193010E94B2327B01C2
:100A80008C01C601B501A40193010E94B232C901D3
:100A9000DA011C012D01C201B10165962CAD3DADFD
:100AA0004EAD5FAD65970E947F329B01AC0187011F
:100AB000FF24EE24AD8CBE8CCF8CD8A0C601AA2713
:100AC000BB2757016801A82AB92ACA2ADB2AA2161D
:100AD000B306C406D50600F508942108310841087C
:100AE0005108EDA0FEA00FA118A5AE0CBF1CC01EA2
:100AF000D11EAE14BF04C006D10670F0A216B30614
:100B0000C406D50648F40894210831084108510864
:100B1000AE0CBF1CC01ED11EA21AB30AC40AD50A4D
:100B2000C601B501A40193010E94B2327B018C0180
:100B3000C601B501A40193010E94B232C901DA01D4
:100B40003C014D01C401B30165962CAD3DAD4EADE8
:100B50005FAD65970E947F329B01AC018701FF2446
:100B6000EE248D8D9E8DAF8DB8A1A070B070570111
:100B70006801A82AB92ACA2ADB2AA216B306C40623
:100B8000D50600F5089461087108810891086DA1E7
:100B90007EA18FA198A5A60EB71EC81ED91EA616A7
:100BA000B706C806D90670F0A216B306C406D50665
:100BB00048F408946108710881089108A60EB71ED0
:100BC000C81ED91ED601C501821B930BA40BB50B01
:100BD000898F9A8FAB8FBC8FD101992788276401A9
:100BE0005301A82AB92ACA2ADB2AA9AABAAACBAAD7
:100BF000DCAA860175012FEF3FEF40E050E0E222D2
:100C0000F32204231523A601662777276D964CAFA0
:100C10005DAF6EAF7FAF6D97A9A0BAA0CBA0DCA0EF
:100C20006FEF7FEF80E090E0A622B722C822D922A2
:100C300089A19AA1ABA1BCA11D0144245524C801DE
:100C4000B701A60195010E947F3269966CAF7DAF16
:100C50008EAF9FAF6997C801B701A20191010E94B1
:100C60007F323B014C016D966CAD7DAD8EAD9FAD7D
:100C70006D97A60195010E947F327B018C016D96D4
:100C80006CAD7DAD8EAD9FAD6D97A20191010E94BF
:100C90007F325B016C01A8019701260D371D481DAD
:100CA000591D69966CAC7DAC8EAC9FAC6997C40144
:100CB000AA27BB27280F391F4A1F5B1F2E153F0588
:100CC0004007510748F4E12CF12C61E0062F112D6B
:100CD000AE0CBF1CC01ED11ECA01AA27BB27BC0177
:100CE000CD016A0D7B1D8C1D9D1D698C7A8C8B8CB2
:100CF0009C8C661677068806990640F1661577057E
:100D00008805990509F043C0D90199278827699674
:100D10002CAD3DAD4EAD5FAD699740705070820F08
:100D2000931FA41FB51F2DA53EA54FA558A96E96CC
:100D30000FAC6E9704C0220F331F441F551F0A9437
:100D4000D2F7281739074A075B0708F509A91AA936
:100D50002BA93CA9015010402040304009AB1AABF0
:100D60002BAB3CAB14C066247724430121E030E078
:100D700040E050E029AB3AAB4BAB5CAB0BC0662418
:100D80007724430119AA1AAA1BAA1CAA03C0662425
:100D900077244301FE01719688E0DF011D928A9558
:100DA000E9F7A9A8BAA8CBA8DCA8A98ABA8ACB8AED
:100DB000DC8A6D8A7E8A8F8A988E29A93A894B8926
:100DC0005C89662D7E898F89988DC25ADF4FE2E15A
:100DD0000C94F032ABE5B0E0E0EFF6E00C94D432E6
:100DE000A8E04E010894811C911CF4016A2E119216
:100DF0006A94E9F729833A834B835C836D837E830E
:100E00008F839887CE010996FC011192AA95E9F784
:100E1000A986BA86CB86DC86ED86FE860F87188B80
:100E200029843A844B845C84AD84BE84CF84D88882
:100E300029813A814B815C8169962FAF69976A96C7
:100E40003FAF6A976B964FAF6B976C965FAF6C979F
:100E50006C966CAC7DAC8EAC9FAC6C9769AA7AAA90
:100E60008BAA9CAA6D817E818F8198853B014C0164
:100E70006DAA7EAA8FAA98AEA114B104C104D104B0
:100E800009F004C3621473048404950408F000C1DB
:100E900000E0201600E0300601E0400600E05006C9
:100EA00088F41FEF211631044104510439F030F069
:100EB00088E0E82EF12C012D112D18C0EE24FF241E
:100EC000870114C040E0241640E0340640E04406A8
:100ED00041E0540630F0B8E1EB2EF12C012D112D3C
:100EE00005C0A0E1EA2EF12C012D112DD201C10186
:100EF0000E2C04C0B695A795979587950A94D2F7BE
:100F000081599F4FDC012C9180E290E0A0E0B0E09D
:100F10008E199F09A00BB10B5C016D01A21AB108DB
:100F2000C108D108A9AEBAAECBAEDCAEA114B104F3
:100F3000C104D10409F43FC069AD062E04C0220CDF
:100F4000331C441C551C0A94D2F7A4019301062EAD
:100F500004C0220F331F441F551F0A94D2F780E2AA
:100F600090E08A199B096C96CCACDDACEEACFFAC82
:100F70006C9704C0F694E794D794C7948A95D2F7F7
:100F800087017601E22AF32A042B152BEDAAFEAA8B
:100F90000FAB18AF6C968CAD9DADAEADBFAD6C9781
:100FA00004C0880F991FAA1FBB1F6A95D2F789AB8F
:100FB0009AABABABBCAB320188249924B201A1013E
:100FC0006070707021964CAF5DAF6EAF7FAF2197B0
:100FD0006DA97EA98FA998ADA40193010E94B23298
:100FE0007B018C016DA97EA98FA998ADA401930105
:100FF0000E94B232CA01B90121962CAD3DAD4EAD71
:101000005FAD21970E947F329B01AC018701FF24D5
:10101000EE24A9A8BAA8CBA8DCA8C601AA27BB279A
:1010200057016801A82AB92ACA2ADB2AA216B306E0
:10103000C406D50690F4A20CB31CC41CD51CA21483
:10104000B304C404D50448F0A216B306C406D506FA
:1010500020F4A20CB31CC41CD51CA21AB30AC40AE7
:10106000D50AC601B501A40193010E94B2327B01E9
:101070008C01C601B501A40193010E94B232CA01DC
:10108000B90121962CAD3DAD4EAD5FAD2197BAC1F2
:10109000211431044104510471F461E070E080E0F6
:1010A00090E020E030E040E050E00E94B232C90120
:1010B000DA011C012D0100E0201600E0300601E0FD
:1010C000400600E0500688F41FEF21163104410469
:1010D000510439F030F068E0E62EF12C012D112D8D
:1010E00018C0EE24FF24870114C040E0241640E01D
:1010F000340640E0440641E0540630F058E1E52E65
:10110000F12C012D112D05C040E1E42EF12C012D13
:10111000112DD201C1010E2C04C0B695A79597954B
:1011200087950A94D2F781599F4FDC012C9130E2C8
:10113000A32EB12CC12CD12CD601C5018E199F092B
:10114000A00BB10B7C018D01E21AF1080109110914
:10115000E9AEFAAE0BAF1CAFE114F10401051105C5
:1011600039F464015301A218B308C408D508E2C0D9
:10117000F9AC6896FFAE68970F2C04C0220C331CA4
:10118000441C551C0A94D2F78A2D8F19640153010F
:10119000082E04C0D694C794B794A7940A94D2F7A3
:1011A000A401930104C0220F331F441F551FFA945A
:1011B000D2F76C966CAC7DAC8EAC9FAC6C9704C0D7
:1011C00096948794779467948A95D2F784017301F3
:1011D000E22AF32A042B152BEDA6FEA60FA718ABC7
:1011E000320188249924B201A101607070702596A3
:1011F0004CAF5DAF6EAF7FAF2597C601B501A401BF
:1012000093010E94B2327B018C01C601B501A40199
:1012100093010E94B232CA01B90125962CAD3DADB1
:101220004EAD5FAD25970E947F329B01AC018701D7
:10123000FF24EE24ADA4BEA4CFA4D8A8C601AA273B
:10124000BB275C016D01AE28BF28C02AD12AA21697
:10125000B306C406D50690F4A20CB31CC41CD51C5E
:10126000A214B304C404D50448F0A216B306C406FD
:10127000D50620F4A20CB31CC41CD51CA21AB30AB8
:10128000C40AD50AC601B501A40193010E94B23275
:101290007B018C01C601B501A40193010E94B23209
:1012A000CA01B90125962CAD3DAD4EAD5FAD259778
:1012B0000E947F329B01AC018701FF24EE248DA5A3
:1012C0009EA5AFA5B8A9A070B07057016801A82A63
:1012D000B92ACA2ADB2AA216B306C406D50690F498
:1012E000A20CB31CC41CD51CA214B304C404D504A2
:1012F00048F0A216B306C406D50620F4A20CB31C0F
:10130000C41CD51C6C96ECACFDAC0EAD1FAD6C973F
:1013100068960FAC689704C0EE0CFF1C001F111FED
:101320000A94D2F7E9AAFAAA0BAB1CABA21AB30A29
:10133000C40AD50A320188249924B201A10160703F
:10134000707029964CAF5DAF6EAF7FAF2997C60125
:10135000B501A40193010E94B2327B018C01C60148
:10136000B501A40193010E94B232CA01B9012996C4
:101370002CAD3DAD4EAD5FAD29970E947F329B01F4
:10138000AC018701FF24EE24A9A8BAA8CBA8DCA849
:10139000C601AA27BB2757016801A82AB92ACA2A69
:1013A000DB2AA216B306C406D50690F4A20CB31C21
:1013B000C41CD51CA214B304C404D50448F0A2165E
:1013C000B306C406D50620F4A20CB31CC41CD51C5D
:1013D000A21AB30AC40AD50AC601B501A401930131
:1013E0000E94B2327B018C01C601B501A4019301B8
:1013F0000E94B232CA01B90129962CAD3DAD4EAD65
:101400005FAD29970E947F329B01AC018701FF24C9
:10141000EE2489A99AA9ABA9BCA9A070B070E82A4A
:10142000F92A0A2B1B2BE216F3060407150790F482
:10143000E20CF31C041D151DE214F304040515054C
:1014400048F0E216F3060407150720F4E20CF31C3B
:10145000041D151DE21AF30A040B150BD801C70170
:1014600009AC04C0B695A795979587950A94D2F7CD
:10147000898B9A8BAB8BBC8B1D8A1E8A1F8A188E18
:10148000282F3A894B895C896D890CC36A147B04C7
:101490008C049D0408F409C300E0A01600E0B00627
:1014A00001E0C00600E0D00688F41FEFA116B104E9
:1014B000C104D10439F030F028E0E22EF12C012DE6
:1014C000112D18C0EE24FF24870114C040E0A4169B
:1014D00040E0B40640E0C40641E0D40630F098E1B4
:1014E000E92EF12C012D112D05C080E1E82EF12C03
:1014F000012D112DD601C5010E2C04C0B695A7955E
:10150000979587950A94D2F781599F4FDC012C91CA
:1015100080E290E0A0E0B0E08E199F09A00BB10B33
:10152000821B9109A109B1090097A105B10509F034
:101530004FC0A614B704C804D90458F06C96ECAC9C
:10154000FDAC0EAD1FAD6C97E214F3040405150558
:1015500068F16C96ECACFDAC0EAD1FAD6C97E2186B
:10156000F30804091509A40193012A193B094C0940
:101570005D09AA24BB2465016C966CAD7DAD8EAD72
:101580009FAD6C976E157F058007910728F4B1E039
:10159000AB2EB12CC12CD12CDA01C9018A199B09BF
:1015A000AC09BD098DAB9EABAFABB8AFE98AFA8A87
:1015B0000B8B1C8B6DA87EA88FA898AC6D8A7E8A39
:1015C0008F8A988E2E2D3A894B895C896DA96AC2C3
:1015D00067968FAF6797A6019501082E04C0220F6A
:1015E000331F441F551F0A94D2F7A0E2AA2EA81A4F
:1015F0006696AFAE6697D201C10104C0B695A795B5
:1016000097958795AA94D2F76C017D01C22AD32AB7
:10161000E42AF52AC9A6DAA6EBA6FCA68201710186
:1016200067960FAC679704C0EE0CFF1C001F111FDC
:101630000A94D2F7EDA2FEA20FA318A764015301EA
:1016400066960FAC669704C0D694C794B794A794D7
:101650000A94D2F7A401930167960FAC679704C070
:10166000220F331F441F551F0A94D2F76C968CAD7E
:101670009DADAEADBFAD6C9766960FAC669704C0DE
:10168000B695A795979587950A94D2F73C014D0199
:10169000622A732A842A952A69A27AA28BA29CA222
:1016A0006C96ECACFDAC0EAD1FAD6C9767960FACB5
:1016B000679704C0EE0CFF1C001F111F0A94D2F79D
:1016C000ED8EFE8E0F8F18A349A55AA56BA57CA59C
:1016D0003B0188249924607070702D964CAF5DAFEB
:1016E0006EAF7FAF2D97C601B501A40193010E9493
:1016F000B2327B018C01C601B501A40193010E94A5
:10170000B232C901DA011C012D01C201B1012D96CD
:101710002CAD3DAD4EAD5FAD2D970E947F329B014C
:10172000AC018701FF24EE24A9A0BAA0CBA0DCA0C5
:10173000C601AA27BB2757016801A82AB92ACA2AC5
:10174000DB2AA216B306C406D50600F508942108C4
:10175000310841085108E9A4FAA40BA51CA5AE0C58
:10176000BF1CC01ED11EAE14BF04C006D10670F04F
:10177000A216B306C406D50648F408942108310819
:1017800041085108AE0CBF1CC01ED11EA21AB30ADC
:10179000C40AD50AC601B501A40193010E94B23260
:1017A0007B018C01C601B501A40193010E94B232F4
:1017B000C901DA013C014D01C401B3012D962CADE4
:1017C0003DAD4EAD5FAD2D970E947F329B01AC01C8
:1017D0008701FF24EE2489A19AA1ABA1BCA1A0702E
:1017E000B07057016801A82AB92ACA2ADB2AA216B2
:1017F000B306C406D50600F508946108710881088F
:10180000910869A57AA58BA59CA5A60EB71EC81E32
:10181000D91EA616B706C806D90670F0A216B306DA
:10182000C406D50648F40894610871088108910837
:10183000A60EB71EC81ED91ED601C501821B930B6A
:10184000A40BB50B898F9A8FAB8FBC8FD1019927D1
:10185000882784017301E82AF92A0A2B1B2B4FEFF2
:10186000A42E4FEFB42EC12CD12CAE20BF20C0220D
:10187000D1227801002711276DA07EA08FA098A407
:101880004FEF5FEF60E070E06422752286229722BE
:101890008DA19EA1AFA1B8A5BD0188279927659606
:1018A0006CAF7DAF8EAF9FAF6597C601B501A40148
:1018B00093010E947F3261966CAF7DAF8EAF9FAF78
:1018C0006197C601B50165962CAD3DAD4EAD5FADDE
:1018D00065970E947F321B012C01C801B701A4014A
:1018E00093010E947F325B016C01C801B7016596CC
:1018F0002CAD3DAD4EAD5FAD65970E947F327B0153
:101900008C01A6019501220D331D441D551D6196C4
:101910006CAC7DAC8EAC9FAC6197C401AA27BB2791
:10192000280F391F4A1F5B1F2A153B054C055D0513
:1019300048F4812C912CE1E0AE2EB12CE80CF91C7E
:101940000A1D1B1DCA01AA27BB2757016801A80E43
:10195000B91ECA1EDB1EA9013327222761968CAD52
:101960009DADAEADBFAD6197A070B070280F391FAF
:101970004A1F5B1FE98CFA8C0B8D1C8DEA14FB044B
:101980000C051D0570F0AE14BF04C006D10669F544
:101990006D8D7E8D8F8D98A16217730784079507D3
:1019A00020F5DA01C9016DA07EA08FA098A4861948
:1019B0009709A809B909E9A4FAA40BA51CA5AE18B2
:1019C000BF08C00AD10AEE24FF248701281739076F
:1019D0004A075B0728F421E0E22EF12C012D112D9E
:1019E000AE18BF08C00AD10A02C0DA01C9016D8C65
:1019F0007E8C8F8C98A0681A790A8A0A9B0A498D76
:101A00005A8D6B8D7C8D4A195B096C097D095A01D1
:101A10006B012224332421016D8D7E8D8F8D98A141
:101A2000661577058805990528F481E0282E312C64
:101A3000412C512C86017501E218F308040915099F
:101A4000A801970166960FAC669704C0220F331F5A
:101A5000441F551F0A94D2F7D401C30167960FACF7
:101A6000679704C0B695A795979587950A94D2F77E
:101A7000282B392B4A2B5B2B298B3A8B4B8B5C8B7E
:101A800067960FAC679704C016950795F794E7948F
:101A90000A94D2F7ED8AFE8A0F8B188F3A894B8908
:101AA0005C896E2D7E898F89988DC55ADF4FE2E162
:101AB0000C94F032A0E0B0E0E0E6FDE00C94D4320B
:101AC000DC012B01FA019C91923008F439C1EB0141
:101AD0008881823008F433C1943069F4843009F08D
:101AE0002FC111969C9111978981981709F428C1EB
:101AF000A7E6B0E025C1843009F421C18230A9F401
:101B0000923009F01DC19A01AD0188E0EA01099007
:101B1000AE01E90109929E018150C1F7E20189817C
:101B200011969C918923818308C1923009F407C1E1
:101B300012962D903C901397EB018A819B8114960D
:101B4000AD90BD90CD90DC901797EC80FD800E811C
:101B50001F819101281B390BB90137FF04C066278B
:101B60007727621B730B603271050CF061C012168F
:101B700013066CF537014801062E04C0969487942D
:101B8000779467940A94D2F721E030E040E050E087
:101B900004C0220F331F441F551F6A95D2F72150EE
:101BA0003040404050402E213F21402351232115F9
:101BB00031054105510521F021E030E040E050E0E1
:101BC00079018A01E628F728082919293CC0232B26
:101BD000D1F1260E371E35014601062E04C096941B
:101BE0008794779467940A94D2F721E030E040E03C
:101BF00050E004C0220F331F441F551F6A95D2F7CF
:101C000021503040404050402A213B214C215D2151
:101C1000211531054105510521F021E030E040E07A
:101C200050E059016A01A628B728C828D9280BC056
:101C3000821593052CF01C01AA24BB24650103C066
:101C4000EE24FF24870111969C91D20111968C916C
:101C5000981709F445C0992339F0A80197012A196A
:101C60003B094C095D0906C0A60195012E193F09E3
:101C7000400B510B57FD08C011823382228224830E
:101C80003583468357831DC081E08183338222825E
:101C900088279927DC01821B930BA40BB50B848347
:101CA0009583A683B7830DC0220F331F441F551F92
:101CB000248335834683578382819381019793835D
:101CC00082832481358146815781DA01C9010197D8
:101CD000A109B1098F5F9F4FAF4FBF4328F30BC0DE
:101CE000918333822282EA0CFB1C0C1D1D1DE482B1
:101CF000F5820683178383E08083248135814681C2
:101D0000578157FF1AC0C901AA2797FDA095BA2F7E
:101D100081709070A070B070569547953795279553
:101D2000822B932BA42BB52B84839583A683B78317
:101D300082819381019693838283DF0101C0D20166
:101D4000CD01CDB7DEB7E2E10C94F032A0E2B0E015
:101D5000ECEAFEE00C94E03269837A838B839C8307
:101D60002D833E834F835887E9E0EE2EF12CEC0E55
:101D7000FD1ECE010196B7010E9463128E010F5E17
:101D80001F4FCE010596B8010E9463128A8991E027
:101D900089278A8BC701B801AE01475E5F4F0E9459
:101DA0005A0D0E948E11A096E6E00C94FC32A0E23F
:101DB000B0E0EDEDFEE00C94E03269837A838B8332
:101DC0009C832D833E834F835887F9E0EF2EF12CBF
:101DD000EC0EFD1ECE010196B7010E9463128E012A
:101DE0000F5E1F4FCE010596B8010E946312C70116
:101DF000B801AE01475E5F4F0E945A0D0E948E11DE
:101E0000A096E6E00C94FC32A0E2B0E0EAE0FFE04D
:101E10000C94D43269837A838B839C832D833E8395
:101E20004F835887CE010196BE01675F7F4F0E94A6
:101E30006312CE010596BE016F5E7F4F0E94631252
:101E40009985923088F089898230C8F0943019F4ED
:101E5000823051F404C0843029F4923081F487E652
:101E600090E0C6C0923049F420E09A858A899813A0
:101E700021E02A87CE010996BBC0823049F420E0D8
:101E80009A858A89981321E02A8BCE014196B0C0A9
:101E90002D843E844F8458886D887E888F88988CE6
:101EA000EE24FF248701AA24BB24650140E050E012
:101EB00060E070E0E0E0F0E0C10181709070892B9B
:101EC000E9F0E60CF71C081D191D9A01AB012A0D5B
:101ED0003B1D4C1D5D1D80E090E0A0E0B0E0E614ED
:101EE000F7040805190520F481E090E0A0E0B0E0D7
:101EF000BA01A901480F591F6A1F7B1FAA0CBB1CFE
:101F0000CC1CDD1C97FE08C081E090E0A0E0B0E0B2
:101F1000A82AB92ACA2ADB2A3196E032F10549F00B
:101F2000660C771C881C991C569447943794279408
:101F3000C3CFFA85EA892B893C898B859C85280F3C
:101F4000391F2E5F3F4F17C0CA0181709070892BD7
:101F500061F016950795F794E79480E090E0A0E093
:101F6000B0E8E82AF92A0A2B1B2B76956795579536
:101F700047952F5F3F4F77FDE7CF0CC0440F551FAC
:101F8000661F771F17FD4160EE0CFF1C001F111F1D
:101F900021503040403090E0590790E0690790E4CC
:101FA000790760F32B8F3C8FDB01CA018F7790702C
:101FB000A070B07080349105A105B10561F447FDB2
:101FC0000AC0E114F1040105110529F0405C5F4FDE
:101FD0006F4F7F4F40781A8EFE1711F081E08A8F85
:101FE0004D8F5E8F6F8F78A383E0898FCE014996E6
:101FF0000E948E11A096E2E10C94F032A8E1B0E0CC
:10200000E4E0F0E10C94DC3269837A838B839C8377
:102010002D833E834F835887B9E0EB2EF12CEC0ED5
:10202000FD1ECE010196B7010E9463128E010F5E64
:102030001F4FCE010596B8010E94631229852230F8
:1020400008F47EC03989323010F4B8017CC08A852A
:102050009A8989278A87243011F0223031F4231796
:1020600009F06EC067E670E06EC0343039F41D864A
:102070001E861F86188A1C861B8604C0323021F4F7
:1020800084E08987B7015FC02B853C858B899C895B
:10209000281B390B3C872B87ED84FE840F8518891C
:1020A000AD88BE88CF88D88CEA14FB040C051D05CA
:1020B00040F4EE0CFF1C001F111F215030403C87E4
:1020C0002B8720E030E040E050E080E090E0A0E0AE
:1020D000B0E460E070E0EA14FB040C051D0540F07C
:1020E000282B392B4A2B5B2BEA18FB080C091D09FE
:1020F000B695A79597958795EE0CFF1C001F111FAD
:102100006F5F7F4F6F31710531F7DA01C9018F774A
:102110009070A070B07080349105A105B10561F494
:1021200027FD0AC0E114F1040105110529F0205C26
:102130003F4F4F4F5F4F20782D873E874F87588BFB
:10214000BE01675F7F4FCB010E948E116896EAE067
:102150000C94F832A8E1B0E0E0EBF0E10C94E0324E
:1021600069837A838B839C832D833E834F83588737
:1021700089E0E82EF12CEC0EFD1ECE010196B70190
:102180000E9463128E010F5E1F4FCE010596B801AB
:102190000E9463128985823040F08989823028F05C
:1021A000C701B8010E94DB1201C08FEF6896E6E01C
:1021B0000C94FC32A8E1B0E0E0EEF0E10C94E032E7
:1021C00069837A838B839C832D833E834F835887D7
:1021D00089E0E82EF12CEC0EFD1ECE010196B70130
:1021E0000E9463128E010F5E1F4FCE010596B8014B
:1021F0000E9463128985823040F08989823028F0FC
:10220000C701B8010E94DB1201C08FEF6896E6E0BB
:102210000C94FC32A8E1B0E0E0E1F1E10C94E03292
:1022200069837A838B839C832D833E834F83588776
:1022300089E0E82EF12CEC0EFD1ECE010196B701CF
:102240000E9463128E010F5E1F4FCE010596B801EA
:102250000E9463128985823040F08989823028F09B
:10226000C701B8010E94DB1201C081E06896E6E078
:102270000C94FC32ACE0B0E0E0E4F1E10C94E43228
:1022800069837A838B839C83CE010196BE016B5F49
:102290007F4F0E9463128D81823061F1823050F154
:1022A000843021F48E81882351F12EC02F8138850E
:1022B00037FD20C06E812F3131051CF06623F9F007
:1022C00023C08EE190E0821B930B29853A854B85D4
:1022D0005C8504C056954795379527958A95D2F722
:1022E0006623B1F050954095309521953F4F4F4F63
:1022F0005F4F0EC020E030E040E050E009C02FEF1B
:102300003FEF4FEF5FE704C020E030E040E050E8EF
:10231000B901CA012C96E2E00C940033DF92EF92EF
:10232000FF920F931F93FC01E480F58006811781D3
:10233000D1808081823048F480E090E0A0E1B0E07C
:10234000E82AF92A0A2B1B2BA5C0843009F49FC068
:10235000823021F4EE24FF24870105C0E114F1044A
:102360000105110519F4E0E0F0E096C06281738187
:102370009FEF623879070CF05BC022E83FEF261B25
:10238000370B2A3131052CF020E030E040E050E0FE
:102390002AC0B801A701022E04C07695679557950B
:1023A00047950A94D2F781E090E0A0E0B0E004C045
:1023B000880F991FAA1FBB1F2A95D2F70197A10961
:1023C000B1098E219F21A023B1230097A105B1055A
:1023D00021F081E090E0A0E0B0E09A01AB01282B71
:1023E000392B4A2B5B2BDA01C9018F779070A070D3
:1023F000B07080349105A105B10539F427FF09C0FB
:10240000205C3F4F4F4F5F4F04C0215C3F4F4F4F09
:102410005F4FE0E0F0E02030A0E03A07A0E04A079C
:10242000A0E45A0710F0E1E0F0E079018A0127C04A
:102430006038710564F5FB01E158FF4FD801C70111
:102440008F779070A070B07080349105A105B105B0
:1024500039F4E7FE0DC080E490E0A0E0B0E004C0F5
:102460008FE390E0A0E0B0E0E80EF91E0A1F1B1F0A
:1024700017FF05C016950795F794E794319687E006
:1024800016950795F794E7948A95D1F705C0EE2441
:10249000FF248701EFEFF0E06E2F679566276795C1
:1024A000902F9F77D794DD24D7948E2F8695492F30
:1024B000462B582F5D29B701CA011F910F91FF903C
:1024C000EF90DF900895FC01DB0140815181228172
:1024D000622F6F7770E0221F2227221F9381892F9E
:1024E000880F822B282F30E0991F9927991F11966A
:1024F0009C93119721153105A9F5411551056105E9
:10250000710511F482E037C082E89FEF13969C9327
:102510008E9312979A01AB0167E0220F331F441F7D
:10252000551F6A95D1F783E08C930DC0220F331F9E
:10253000441F551F12968D919C91139701971396E6
:102540009C938E931297203080E0380780E04807F4
:1025500080E4580758F314962D933D934D935C9364
:10256000179708952F3F310579F4411551056105FD
:10257000710519F484E08C93089564FF03C081E031
:102580008C9312C01C9210C02F57304013963C936E
:102590002E93129783E08C9387E0440F551F661F9C
:1025A000771F8A95D1F7706414964D935D936D9360
:1025B0007C93179708951F93DC01FB019C91923047
:1025C00008F447C08081823008F443C0943051F44D
:1025D00011961C91843099F58181682F70E0611B00
:1025E00071093FC0843021F0923031F48230B9F16A
:1025F0008181882389F12DC011961C911197823019
:10260000F1F081811817D9F412962D913C9113970E
:10261000828193818217930794F028173907BCF0C1
:1026200014968D919D910D90BC91A02D24813581A2
:1026300046815781281739074A075B0718F4112389
:1026400041F00AC082179307A407B50740F411238D
:1026500019F061E070E005C06FEF7FEF02C060E04D
:1026600070E0CB011F910895DF93CF93CDB7DEB714
:1026700083E062E042E020E00E947620CF91DF918B
:102680000895DF93CF9300D000D0CDB7DEB79C8301
:102690008B838B819C810097D1F088EE93E02B8116
:1026A0003C81B9010E949E32CB019A838983898142
:1026B0009A81009741F0E6E4F0E089819A810197E0
:1026C0009183808304C0E6E4F0E0118210820F90D1
:1026D0000F900F900F90CF91DF910895DF93CF93DC
:1026E00000D000D0CDB7DEB79C838B838B819C81DB
:1026F000009709F18B819C819C0140E050E080E4CF
:1027000092E4AFE0B0E0BC01CD010E94B232DA0148
:10271000C9019A83898389819A81009741F0E6E40F
:10272000F0E089819A8101979183808304C0E6E477
:10273000F0E0118210820F900F900F900F90CF91C8
:10274000DF910895EF92FF920F931F93DF93CF9342
:1027500000D000D0CDB7DEB79C838B838B819C816A
:102760008536910580F58B819C817C0100E010E02D
:10277000E6E4F0E08081918101969C0140E050E028
:10278000C801B7010E947F32DC01CB0124E630E0B2
:1027900040E050E0BC01CD010E94B232DA01C90133
:1027A0009A83898389819A818230910540F0EAE495
:1027B000F0E089819A8101979183808304C0EAE4E3
:1027C000F0E0118210820F900F900F900F90CF9138
:1027D000DF911F910F91FF90EF900895DF93CF93BA
:1027E00000D000D0CDB7DEB79A8389837C836B831A
:1027F00082E062E040E020E00E947620EAE4F0E03F
:1028000029813A8188EE93E0AC01249FC001259F85
:10281000900D349F900D11240197918380838B81BB
:102820009C810E94A8220E945E220F900F900F9020
:102830000F90CF91DF910895DF93CF9300D000D018
:10284000CDB7DEB79A8389837C836B8382E062E0B5
:1028500040E020E00E947620EAE4F0E089819A815D
:102860000197918380838B819C810E94A8220E9482
:102870005E220F900F900F900F90CF91DF910895EF
:10288000EF92FF920F931F93DF93CF93CDB7DEB7F5
:1028900028970FB6F894DEBF0FBECDBF9E838D8301
:1028A00078876F831092DB011092DA01ECE4F0E09C
:1028B000118210828EE10E94961C8823D9F78EE146
:1028C0000E94961C8823D9F3ECE4F0E01182108278
:1028D0008EE10E94961C8823D9F7ECE4F0E0808119
:1028E00091819C838B83ECE4F0E0118210828EE175
:1028F0000E94961C8823D9F3ECE4F0E0808191815A
:102900009A8389838B819C81CC01A0E0B0E024E68E
:1029100030E040E050E0BC01CD010E947F327B01FD
:102920008C012B813C8189819A81820F931F9C01AC
:1029300040E050E0C801B7010E94B232DA01C9019B
:10294000EF81F885808389819A819C0140E050E085
:102950008B819C81CC01A0E0B0E0280F391F4A1F79
:102960005B1F80E492E4AFE0B0E0BC01CD010E94C7
:10297000B232DA01C901ED81FE8180839183A283A5
:10298000B38328960FB6F894DEBF0FBECDBFCF91AC
:10299000DF911F910F91FF90EF900895EF92FF92BA
:1029A0000F931F93DF93CF93CDB7DEB728970FB662
:1029B000F894DEBF0FBECDBF9E838D8378876F8373
:1029C000ECE4F0E01182108285E695E10E94CC22D1
:1029D00080E00E9407220E9426221092DB011092C2
:1029E000DA018091DA019091DB0183309105C8F31F
:1029F0002091090230910A0280910B0290910C0201
:102A0000A901481B590BCA019C838B8320910702A3
:102A1000309108028091090290910A02A901481B95
:102A2000590BCA019A8389838B819C81CC01A0E0D8
:102A3000B0E024E630E040E050E0BC01CD010E946F
:102A40007F327B018C018B819C819C0140E050E0B6
:102A500089819A81CC01A0E0B0E0280F391F4A1F7C
:102A60005B1FC801B7010E94B232DA01C901EF81D0
:102A7000F885808389819A819C0140E050E08B81B8
:102A80009C81CC01A0E0B0E0280F391F4A1F5B1FDA
:102A900080E492E4AFE0B0E0BC01CD010E94B2322C
:102AA000DA01C901ED81FE8180839183A283B38322
:102AB00028960FB6F894DEBF0FBECDBFCF91DF9141
:102AC0001F910F91FF90EF900895DF93CF93CDB7B3
:102AD000DEB78091DA019091DB01009791F4E6E492
:102AE000F0E08081918190930C0280930B0281E051
:102AF0000E94072281E090E09093DB018093DA014D
:102B000030C08091DA019091DB018130910591F420
:102B1000E6E4F0E08081918190930A0280930902BB
:102B200080E00E94072282E090E09093DB01809396
:102B3000DA0117C08091DA019091DB0182309105B2
:102B400081F4E6E4F0E08081918190930802809323
:102B500007020E94342283E090E09093DB0180938F
:102B6000DA01CF91DF910895DF93CF9300D00F92D8
:102B7000CDB7DEB79B838A8319820EC08981282F47
:102B800030E08A819B81FC01E20FF31F80810E946B
:102B9000D92489818F5F89838981282F30E08A81B8
:102BA0009B81FC01E20FF31F8081882339F70F908E
:102BB0000F900F90CF91DF910895DF93CF9300D0C6
:102BC000CDB7DEB79A83898389819A819093DF019B
:102BD0008093DE01E981FA8180810E94D9248AEF05
:102BE00095E10E9449240E941B240F900F90CF91E1
:102BF000DF910895DF93CF93CDB7DEB72091DE014B
:102C00003091DF0180917001882F90E0F901E80F89
:102C1000F91F80818823A1F02091DE013091DF012E
:102C200080917001882F90E0F901E80FF91F8081F1
:102C30000E94C124809170018F5F8093700105C054
:102C400081E0809370010E942924CF91DF91089543
:102C5000DF93CF9300D0CDB7DEB79A83898380E628
:102C600096E10E9449240E941B2480916F018823D1
:102C700011F18091DC01282F30E089819A81FC01DB
:102C8000E20FF31F80818823A1F08091DC01282FBF
:102C900030E089819A81FC01E20FF31F80810E945C
:102CA000C1248091DC018F5F8093DC0110926F0161
:102CB00002C01092DC010F900F90CF91DF91089528
:102CC000DF93CF93CDB7DEB781E080936F01CF91D3
:102CD000DF9108950F931F93DF93CF9300D00F924E
:102CE000CDB7DEB79B838A8319828981282F30E094
:102CF0008A819B818C01020F131F0E94F324F8012B
:102D000080830FC089818F5F89838981282F30E07C
:102D10008A819B818C01020F131F0E94F324F8010A
:102D200080838981282F30E08A819B81FC01E20F1A
:102D3000F31F80818D3031F78981282F30E08A811F
:102D40009B81FC01E20FF31F10820F900F900F90F8
:102D5000CF91DF911F910F910895DF93CF9300D012
:102D6000CDB7DEB79A83898389819A819093E101F7
:102D70008093E0010E94FF2385EC96E10E943724B6
:102D80000F900F90CF91DF9108950F931F93DF93D2
:102D9000CF93CDB7DEB72091E0013091E101809172
:102DA000DD01882F90E08901080F191F0E94CF24B0
:102DB000F80180838091DD018F5F8093DD01CF91E9
:102DC000DF911F910F910895DF93CF9300D000D032
:102DD00000D0CDB7DEB79E838D831C821B821A8202
:102DE000198214C08B81282F30E08D819E81FC01D7
:102DF000E20FF31F8081282F30E089819A81820FB2
:102E0000931F9A8389838B818F5F8B838B81282F7C
:102E100030E08D819E81FC01E20FF31F80818823C9
:102E200009F78B810E94D9241C820EC08C81282F27
:102E300030E08D819E81FC01E20FF31F80810E94B2
:102E4000D9248C818F5F8C839C818B81981770F340
:102E500089810E94D92489819A81892F99270E948A
:102E6000D92426960FB6F894DEBF0FBECDBFCF9102
:102E7000DF9108950F931F93DF93CF93CDB7DEB704
:102E80002B970FB6F894DEBF0FBECDBF9A87898708
:102E900018861F821E821D821C821B821A82198242
:102EA0000E94F3248F83188620C08885282F30E065
:102EB00089859A858C01020F131F0E94F324F80163
:102EC00080838885282F30E089859A85FC01E20F70
:102ED000F31F8081282F30E089819A81820F931F10
:102EE0009A83898388858F5F888798858F819817D3
:102EF000E0F20E94F3248E830E94F3248D838E815E
:102F0000282F30E08D81882F90E0982F8827822B02
:102F1000932B9C838B8329813A818B819C812817F9
:102F2000390719F4F1E0FB8701C01B868B852B96CE
:102F30000FB6F894DEBF0FBECDBFCF91DF911F91CA
:102F40000F910895DF93CF9300D0CDB7DEB78A837A
:102F50008091E2018A3019F481E0898310C0809168
:102F6000E201882F90E0FC01ED51FE4F8A818083C1
:102F70008091E2018F5F8093E20182E08983898101
:102F80000F900F90CF91DF910895DF93CF9300D0F2
:102F90000F92CDB7DEB79B838A838091E2018823AD
:102FA00011F4198212C08091E20181508093E201F4
:102FB0008091E201882F90E0FC01ED51FE4F80816D
:102FC000EA81FB81808382E0898389810F900F9061
:102FD0000F90CF91DF910895DF93CF93CDB7DEB7F8
:102FE0002C970FB6F894DEBF0FBECDBF198217C263
:102FF0008981882F90E0FC01EF58FE4F80818A8301
:1030000089818695869586958B83898187708C8347
:103010008A81282F30E03C872B878B859C858130E7
:10302000910509F47AC02B853C852230310509F4DD
:1030300032C18B859C85009709F0EEC18B81282FCA
:1030400030E03A87298789859A858130910549F151
:1030500029853A85223031052CF489859A85009797
:1030600061F0DAC129853A852230310571F189850F
:103070009A8583309105E9F1CFC1AAE3B0E0EAE394
:10308000F0E08081482F8C81282F30E081E090E0B3
:10309000022E02C0880F991F0A94E2F7842B8C93AA
:1030A000BBC1A7E3B0E0E7E3F0E08081482F8C816B
:1030B000282F30E081E090E0022E02C0880F991F97
:1030C0000A94E2F7842B8C93A7C1A4E3B0E0E4E375
:1030D000F0E08081482F8C81282F30E081E090E063
:1030E000022E02C0880F991F0A94E2F7842B8C935A
:1030F00093C1A1E3B0E0E1E3F0E08081482F8C814F
:10310000282F30E081E090E0022E02C0880F991F46
:103110000A94E2F7842B8C937FC18B81282F30E0B7
:1031200038872F838F8198858130910509F43EC0BF
:103130002F813885223031052CF48F8198850097B6
:1031400071F06AC12F8138852230310509F455C0EC
:103150008F8198858330910509F476C05DC1AAE31B
:10316000B0E0EAE3F0E08081482F8C81282F30E046
:1031700081E090E002C0880F991F2A95E2F78095C0
:1031800084238C93ABE3B0E0EBE3F0E08081482F45
:103190008C81282F30E081E090E0022E02C0880F61
:1031A000991F0A94E2F7842B8C9336C1A7E3B0E011
:1031B000E7E3F0E08081482F8C81282F30E081E028
:1031C00090E002C0880F991F2A95E2F7809584232A
:1031D0008C93A8E3B0E0E8E3F0E08081482F8C8195
:1031E000282F30E081E090E0022E02C0880F991F66
:1031F0000A94E2F7842B8C930FC1A4E3B0E0E4E3DC
:10320000F0E08081482F8C81282F30E081E090E031
:1032100002C0880F991F2A95E2F7809584238C932A
:10322000A5E3B0E0E5E3F0E08081482F8C81282F12
:1032300030E081E090E0022E02C0880F991F0A94CE
:10324000E2F7842B8C93E8C0A1E3B0E0E1E3F0E087
:103250008081482F8C81282F30E081E090E002C0EF
:10326000880F991F2A95E2F7809584238C93A2E317
:10327000B0E0E2E3F0E08081482F8C81282F30E03D
:1032800081E090E0022E02C0880F991F0A94E2F7B5
:10329000842B8C93C1C08B81282F30E03E832D83FB
:1032A0008D819E818130910509F43FC02D813E8141
:1032B000223031052CF48D819E81009771F0ACC0D5
:1032C0002D813E812230310509F457C08D819E81C8
:1032D0008330910509F479C09FC0AAE3B0E0EAE326
:1032E000F0E08081482F8C81282F30E081E090E051
:1032F00002C0880F991F2A95E2F7809584238C934A
:10330000ABE3B0E0EBE3F0E08081482F8C81282F25
:1033100030E081E090E0022E02C0880F991F0A94ED
:10332000E2F7809584238C9377C0A7E3B0E0E7E3CE
:10333000F0E08081482F8C81282F30E081E090E000
:1033400002C0880F991F2A95E2F7809584238C93F9
:10335000A8E3B0E0E8E3F0E08081482F8C81282FDB
:1033600030E081E090E0022E02C0880F991F0A949D
:10337000E2F7809584238C934FC0A4E3B0E0E4E3AC
:10338000F0E08081482F8C81282F30E081E090E0B0
:1033900002C0880F991F2A95E2F7809584238C93A9
:1033A000A5E3B0E0E5E3F0E08081482F8C81282F91
:1033B00030E081E090E0022E02C0880F991F0A944D
:1033C000E2F7809584238C9327C0A1E3B0E0E1E38A
:1033D000F0E08081482F8C81282F30E081E090E060
:1033E00002C0880F991F2A95E2F7809584238C9359
:1033F000A2E3B0E0E2E3F0E08081482F8C81282F47
:1034000030E081E090E0022E02C0880F991F0A94FC
:10341000E2F7809584238C9389818F5F89838981EA
:10342000803208F4E5CD2C960FB6F894DEBF0FBEBF
:10343000CDBFCF91DF910895DF93CF9300D000D01F
:10344000CDB7DEB789836A838981282F30E03C833A
:103450002B838B819C8181309105D1F02B813C8124
:10346000223031052CF48B819C81009761F01EC0C5
:103470002B813C812230310581F08B819C8183300E
:10348000910581F013C0EBE3F0E08A8180830EC0E8
:10349000E8E3F0E08A81808309C0E5E3F0E08A8117
:1034A000808304C0E2E3F0E08A8180830F900F9074
:1034B0000F900F90CF91DF910895DF93CF9300D0BD
:1034C00000D00F92CDB7DEB789836A834B838981A1
:1034D000282F30E03D832C838C819D8181309105A4
:1034E00059F12C813D81223031052CF48C819D8154
:1034F000009769F05FC02C813D812230310589F150
:103500008C819D818330910509F440C053C0ABE3A9
:10351000B0E0EBE3F0E08081982F8B8180958923E8
:103520008C93ABE3B0E0EBE3F0E020819A818B81F8
:103530008923822B8C933EC0A8E3B0E0E8E3F0E05F
:103540008081982F8B81809589238C93A8E3B0E0AC
:10355000E8E3F0E020819A818B818923822B8C9390
:1035600029C0A5E3B0E0E5E3F0E08081982F8B81EE
:10357000809589238C93A5E3B0E0E5E3F0E020811A
:103580009A818B818923822B8C9314C0A2E3B0E0B3
:10359000E2E3F0E08081982F8B81809589238C93E2
:1035A000A2E3B0E0E2E3F0E020819A818B818923FD
:1035B000822B8C930F900F900F900F900F90CF91C4
:1035C000DF910895DF93CF9300D000D0CDB7DEB761
:1035D00089838981282F30E03C832B838B819C81D8
:1035E00081309105D1F02B813C81223031052CF4C2
:1035F0008B819C81009761F01FC02B813C81223020
:10360000310581F08B819C818330910581F014C05C
:10361000E9E3F0E090819A8310C0E6E3F0E02081D6
:103620002A830BC0E3E3F0E030813A8306C0E0E395
:10363000F0E080818A8301C01A828A810F900F9006
:103640000F900F90CF91DF910895DF93CF9300D02B
:1036500000D000D0CDB7DEB78B836C838B818770B1
:103660008A838B8186958695869589838981282F83
:1036700030E03E832D838D819E818130910509F458
:1036800043C02D813E81223031052CF48D819E81F5
:10369000009771F0BCC02D813E812230310509F4C4
:1036A0005FC08D819E818330910509F485C0AFC0D4
:1036B0008C818130A1F4ABE3B0E0EBE3F0E08081FA
:1036C000482F8A81282F30E081E090E0022E02C04E
:1036D000880F991F0A94E2F7842B8C9398C0ABE370
:1036E000B0E0EBE3F0E08081482F8A81282F30E0C2
:1036F00081E090E0022E02C0880F991F0A94E2F741
:10370000809584238C9383C08C818130A1F4A8E3BD
:10371000B0E0E8E3F0E08081482F8A81282F30E094
:1037200081E090E0022E02C0880F991F0A94E2F710
:10373000842B8C936CC0A8E3B0E0E8E3F0E08081D8
:10374000482F8A81282F30E081E090E0022E02C0CD
:10375000880F991F0A94E2F7809584238C9357C0B1
:103760008C818130A1F4A5E3B0E0E5E3F0E0808155
:10377000482F8A81282F30E081E090E0022E02C09D
:10378000880F991F0A94E2F7842B8C9340C0A5E31D
:10379000B0E0E5E3F0E08081482F8A81282F30E017
:1037A00081E090E0022E02C0880F991F0A94E2F790
:1037B000809584238C932BC08C818130A1F4A2E36B
:1037C000B0E0E2E3F0E08081482F8A81282F30E0EA
:1037D00081E090E0022E02C0880F991F0A94E2F760
:1037E000842B8C9314C0A2E3B0E0E2E3F0E080818C
:1037F000482F8A81282F30E081E090E0022E02C01D
:10380000880F991F0A94E2F7809584238C9326965B
:103810000FB6F894DEBF0FBECDBFCF91DF910895F4
:10382000DF93CF9300D000D00F92CDB7DEB78B835C
:103830008B8187708A838B8186958695869589830F
:103840008981282F30E03D832C838C819D818130BC
:10385000910549F12C813D81223031052CF48C8178
:103860009D81009761F05AC02C813D812230310545
:1038700071F18C819D8183309105E9F14FC0ABE3FB
:10388000B0E0EBE3F0E08081482F8A81282F30E020
:1038900081E090E0022E02C0880F991F0A94E2F79F
:1038A00084278C933BC0A8E3B0E0E8E3F0E080819C
:1038B000482F8A81282F30E081E090E0022E02C05C
:1038C000880F991F0A94E2F784278C9327C0A5E3F9
:1038D000B0E0E5E3F0E08081482F8A81282F30E0D6
:1038E00081E090E0022E02C0880F991F0A94E2F74F
:1038F00084278C9313C0A2E3B0E0E2E3F0E0808180
:10390000482F8A81282F30E081E090E0022E02C00B
:10391000880F991F0A94E2F784278C930F900F90D9
:103920000F900F900F90CF91DF910895DF93CF9379
:1039300000D000D000D0CDB7DEB78B838B818770ED
:103940008A838B8186958695869589838981282FA0
:1039500030E03E832D834D815E814130510549F138
:103960008D819E818230910534F42D813E81211517
:10397000310561F057C04D815E814230510561F1E2
:103980008D819E8183309105D1F14CC0E9E3F0E057
:103990008081282F30E08A81882F90E0A90102C021
:1039A000559547958A95E2F7CA01582F51705C8367
:1039B0003AC0E6E3F0E08081282F30E08A81882F4A
:1039C00090E0A90102C0559547958A95E2F7CA0192
:1039D000582F51705C8327C0E3E3F0E08081282FEB
:1039E00030E08A81882F90E0A90102C05595479563
:1039F0008A95E2F7CA01582F51705C8314C0E0E346
:103A0000F0E08081282F30E08A81882F90E0A901A2
:103A100002C0559547958A95E2F7CA01582F517013
:103A20005C8301C01C828C8126960FB6F894DEBFA1
:103A30000FBECDBFCF91DF910895DF93CF9300D01C
:103A400000D00F92CDB7DEB789837B836A838981EB
:103A5000282F30E03D832C838C819D81813091051E
:103A600081F02C813D812230310591F08C819D8146
:103A70000097A1F48A819B819093EE018093ED01E0
:103A80000DC08A819B819093F0018093EF0106C065
:103A90008A819B819093F2018093F1010F900F90A6
:103AA0000F900F900F90CF91DF910895DF93CF93F8
:103AB00000D00F92CDB7DEB789838981282F30E0FF
:103AC0003B832A838A819B818130910589F02A81F9
:103AD0003B8122303105A1F08A819B810097B9F4A6
:103AE000ABE5B0E0EBE5F0E0808180648C930FC043
:103AF000ABE5B0E0EBE5F0E0808180688C9307C037
:103B0000ABE5B0E0EBE5F0E0808180628C930F9054
:103B10000F900F90CF91DF910895DF93CF9300D056
:103B20000F92CDB7DEB789838981282F30E03B83A0
:103B30002A838A819B818130910589F02A813B818A
:103B400022303105A1F08A819B810097B9F4ABE561
:103B5000B0E0EBE5F0E080818F7B8C930FC0ABE5AC
:103B6000B0E0EBE5F0E080818F778C9307C0ABE5A8
:103B7000B0E0EBE5F0E080818F7D8C930F900F90AB
:103B80000F90CF91DF910895DF93CF93CDB7DEB73C
:103B90002A970FB6F894DEBF0FBECDBF89836A8324
:103BA0008981282F30E03A87298789859A85813055
:103BB000910509F466C029853A852230310509F45A
:103BC000BBC089859A85009709F0DDC08A81282FBE
:103BD00030E038872F838F8198858130910521F1DE
:103BE0002F813885223031052CF48F8198850097FC
:103BF00061F0C9C02F8138852230310521F18F81D4
:103C000098858330910571F1BEC0A5E5B0E0E5E58A
:103C1000F0E080818E7F8C93A5E5B0E0E5E5F0E0F3
:103C200080818D7F8C93AFC0A5E5B0E0E5E5F0E045
:103C3000808181608C93A5E5B0E0E5E5F0E08081CE
:103C40008D7F8C93A0C0A5E5B0E0E5E5F0E0808134
:103C50008E7F8C93A5E5B0E0E5E5F0E080818260A1
:103C60008C9391C0A5E5B0E0E5E5F0E0808181604E
:103C70008C93A5E5B0E0E5E5F0E0808182608C936F
:103C800082C08A81282F30E03E832D838D819E81E2
:103C90008130910521F12D813E81223031052CF4B6
:103CA0008D819E81009761F06EC02D813E81223012
:103CB000310521F18D819E818330910571F163C0C1
:103CC000A5E5B0E0E5E5F0E080818B7F8C93A5E58C
:103CD000B0E0E5E5F0E08081877F8C9354C0A5E5F6
:103CE000B0E0E5E5F0E0808184608C93A5E5B0E08C
:103CF000E5E5F0E08081877F8C9345C0A5E5B0E0E5
:103D0000E5E5F0E080818B7F8C93A5E5B0E0E5E50B
:103D1000F0E0808188608C9336C0A5E5B0E0E5E5F1
:103D2000F0E0808184608C93A5E5B0E0E5E5F0E00B
:103D3000808188608C9327C08A81282F30E03C8363
:103D40002B838B819C818230910531F02B813C81CA
:103D50002330310549F010C0A4E5B0E0E4E5F0E01F
:103D600080818F7B8C930FC0A4E5B0E0E4E5F0E0A8
:103D7000808180648C9307C0A4E5B0E0E4E5F0E0C6
:103D800080818F7B8C932A960FB6F894DEBF0FBE8E
:103D9000CDBFCF91DF9108951F920F920FB60F9272
:103DA00011242F933F934F935F936F937F938F9340
:103DB0009F93AF93BF93EF93FF93DF93CF93CDB7D1
:103DC000DEB78091ED019091EE01009729F0E0912E
:103DD000ED01F091EE010995CF91DF91FF91EF9107
:103DE000BF91AF919F918F917F916F915F914F9113
:103DF0003F912F910F900FBE0F901F9018951F921B
:103E00000F920FB60F9211242F933F934F935F930E
:103E10006F937F938F939F93AF93BF93EF93FF9392
:103E2000DF93CF93CDB7DEB78091EF019091F00192
:103E3000009729F0E091EF01F091F0010995CF9101
:103E4000DF91FF91EF91BF91AF919F918F917F9102
:103E50006F915F914F913F912F910F900FBE0F90F7
:103E60001F9018951F920F920FB60F9211242F9347
:103E70003F934F935F936F937F938F939F93AF93F2
:103E8000BF93EF93FF93DF93CF93CDB7DEB78091CE
:103E9000F1019091F201009729F0E091F101F09188
:103EA000F2010995CF91DF91FF91EF91BF91AF9111
:103EB0009F918F917F916F915F914F913F912F9142
:103EC0000F900FBE0F901F901895DF93CF93CDB733
:103ED000DEB727970FB6F894DEBF0FBECDBF89833C
:103EE0006A834B838981282F30E03F832E838E8124
:103EF0009F818130910521F12E813F812230310552
:103F00002CF48E819F81009761F046C02E813F8105
:103F10002230310521F18E819F818330910571F12D
:103F20003BC0A3E5B0E0E3E5F0E080818F7B8C93BC
:103F3000A3E5B0E0E3E5F0E08081877F8C932CC0BF
:103F4000A3E5B0E0E3E5F0E0808180648C93A3E535
:103F5000B0E0E3E5F0E08081877F8C931DC0A3E5AE
:103F6000B0E0E3E5F0E080818F7B8C93A3E5B0E0E7
:103F7000E3E5F0E0808188608C930EC0A3E5B0E0BB
:103F8000E3E5F0E0808180648C93A3E5B0E0E3E5B5
:103F9000F0E0808188608C93A3E5B0E0E3E5F0E099
:103FA0008081887F8C93A3E5B0E0E3E5F0E0908129
:103FB0008A81892B8C938B81282F30E03D832C8341
:103FC0008C819D818130910521F12C813D812230B0
:103FD00031052CF48C819D81009761F046C02C81C5
:103FE0003D812230310521F18C819D818330910505
:103FF00071F13BC0A3E5B0E0E3E5F0E080818F7EA6
:104000008C93A3E5B0E0E3E5F0E080818F7D8C93B5
:104010002CC0A3E5B0E0E3E5F0E0808180618C9303
:10402000A3E5B0E0E3E5F0E080818F7D8C931DC0D7
:10403000A3E5B0E0E3E5F0E080818F7E8C93A3E51B
:10404000B0E0E3E5F0E0808180628C930EC0A3E5F0
:10405000B0E0E3E5F0E0808180618C93A3E5B0E01F
:10406000E3E5F0E0808180628C9327960FB6F894A8
:10407000DEBF0FBECDBFCF91DF910895DF93CF9309
:10408000CDB7DEB7A9E5B0E0E9E5F0E08081816079
:104090008C93CF91DF910895DF93CF93CDB7DEB7A7
:1040A000A9E5B0E0E9E5F0E080818E7F8C93CF91C7
:1040B000DF910895DF93CF93CDB7DEB7A9E5B0E0E8
:1040C000E9E5F0E0808182608C93CF91DF910895E3
:1040D000DF93CF93CDB7DEB7A9E5B0E0E9E5F0E037
:1040E00080818D7F8C93CF91DF910895DF93CF9363
:1040F000CDB7DEB72A970FB6F894DEBF0FBECDBF9F
:1041000089836A834B832C838981282F30E03A8707
:10411000298789859A858230910509F456C02985B9
:104120003A852330310554F489859A85009799F0B2
:1041300029853A852130310559F19DC089859A85B7
:104140008330910509F45EC029853A852430310514
:1041500009F475C090C0AFE4B0E0EFE4F0E0808116
:104160008E7F8C93AFE4B0E0EFE4F0E080818D7F50
:104170008C93AEE4B0E0EEE4F0E08081877F8C9336
:10418000AEE4B0E0EEE4F0E080818F7E8C9373C00B
:10419000AFE4B0E0EFE4F0E080818E7F8C93AFE499
:1041A000B0E0EFE4F0E080818D7F8C93AEE4B0E08E
:1041B000EEE4F0E0808188608C93AEE4B0E0EEE461
:1041C000F0E0808180618C9356C0AFE4B0E0EFE412
:1041D000F0E080818E7F8C93AFE4B0E0EFE4F0E01C
:1041E00080818D7F8C93AEE4B0E0EEE4F0E08081DE
:1041F00088608C93AEE4B0E0EEE4F0E080818F7EE6
:104200008C9339C0AFE4B0E0EFE4F0E080818E7FC2
:104210008C93AFE4B0E0EFE4F0E0808182608C93B7
:10422000AEE4B0E0EEE4F0E0808188608C93AEE430
:10423000B0E0EEE4F0E0808180618C931CC0AFE4DC
:10424000B0E0EFE4F0E0808181608C93AFE4B0E017
:10425000EFE4F0E0808182608C93AEE4B0E0EEE4C5
:10426000F0E0808188608C93AEE4B0E0EEE4F0E0B2
:10427000808180618C938B81282F30E038872F8359
:104280008F8198858130910521F12F8138852230E9
:1042900031052CF48F819885009761F046C02F81FD
:1042A00038852230310521F18F8198858330910541
:1042B00071F13BC0AFE4B0E0EFE4F0E080818F7BD0
:1042C0008C93AFE4B0E0EFE4F0E080818F778C93E3
:1042D0002CC0AFE4B0E0EFE4F0E0808180648C9328
:1042E000AFE4B0E0EFE4F0E080818F778C931DC005
:1042F000AFE4B0E0EFE4F0E080818F7B8C93AFE43B
:10430000B0E0EFE4F0E0808180688C930EC0AFE411
:10431000B0E0EFE4F0E0808180648C93AFE4B0E043
:10432000EFE4F0E0808180688C938C81282F30E06E
:104330003E832D838D819E818130910521F12D81D8
:104340003E81223031052CF48D819E81009761F0F1
:1043500046C02D813E812230310521F18D819E8123
:104360008330910571F13BC0AFE4B0E0EFE4F0E0E1
:1043700080818F7E8C93AFE4B0E0EFE4F0E0808149
:104380008F7D8C932CC0AFE4B0E0EFE4F0E080814F
:1043900080618C93AFE4B0E0EFE4F0E080818F7D4A
:1043A0008C931DC0AFE4B0E0EFE4F0E080818F7E3D
:1043B0008C93AFE4B0E0EFE4F0E0808180628C9316
:1043C0000EC0AFE4B0E0EFE4F0E0808180618C9358
:1043D000AFE4B0E0EFE4F0E0808180628C93AEE483
:1043E000B0E0EEE4F0E08081887F8C93AEE4B0E052
:1043F000EEE4F0E090818A81892B8C932A960FB6A7
:10440000F894DEBF0FBECDBFCF91DF910895DF934B
:10441000CF930F92CDB7DEB789838981882341F48A
:10442000AEE4B0E0EEE4F0E0808180648C930AC0FA
:104430008981813039F4AEE4B0E0EEE4F0E08081CF
:104440008F7B8C930F90CF91DF910895DF93CF9363
:10445000CDB7DEB7A9E5B0E0E9E5F0E080818062A4
:104460008C93CF91DF910895DF93CF93CDB7DEB7D3
:10447000A9E5B0E0E9E5F0E080818F7D8C93CF91F4
:10448000DF910895DF93CF93CDB7DEB7A9E5B0E014
:10449000E9E5F0E0808184608C93CF91DF9108950D
:1044A000DF93CF93CDB7DEB7A9E5B0E0E9E5F0E063
:1044B00080818B7F8C93CF91DF910895DF93CF9391
:1044C000CDB7DEB7A9E5B0E0E9E5F0E08081806135
:1044D0008C93CF91DF910895DF93CF93CDB7DEB763
:1044E000A9E5B0E0E9E5F0E080818F7E8C93CF9183
:1044F000DF910895DF93CF93CDB7DEB7A9E5B0E0A4
:10450000E9E5F0E0808188608C93CF91DF91089598
:10451000DF93CF93CDB7DEB7A9E5B0E0E9E5F0E0F2
:104520008081877F8C93CF91DF910895DF93CF9324
:1045300000D0CDB7DEB79A83898389819A81909321
:10454000F4018093F3010F900F90CF91DF910895C4
:10455000DF93CF9300D0CDB7DEB79A83898389816B
:104560009A819093F6018093F5010F900F90CF916F
:10457000DF910895DF93CF9300D0CDB7DEB79A8354
:10458000898389819A819093F8018093F7010F9034
:104590000F90CF91DF910895DF93CF9300D0CDB7E7
:1045A000DEB79A83898389819A819093FA018093F7
:1045B000F9010F900F90CF91DF9108951F920F9204
:1045C0000FB60F9211242F933F934F935F936F93E6
:1045D0007F938F939F93AF93BF93EF93FF93DF935B
:1045E000CF93CDB7DEB78091F3019091F40100979E
:1045F00029F0E091F301F091F4010995CF91DF9159
:10460000FF91EF91BF91AF919F918F917F916F91AA
:104610005F914F913F912F910F900FBE0F901F9080
:1046200018951F920F920FB60F9211242F933F935C
:104630004F935F936F937F938F939F93AF93BF93AA
:10464000EF93FF93DF93CF93CDB7DEB78091F50162
:104650009091F601009729F0E091F501F091F601B3
:104660000995CF91DF91FF91EF91BF91AF919F910C
:104670008F917F916F915F914F913F912F910F900B
:104680000FBE0F901F9018951F920F920FB60F92AA
:1046900011242F933F934F935F936F937F938F9347
:1046A0009F93AF93BF93EF93FF93DF93CF93CDB7D8
:1046B000DEB78091F7019091F801009729F0E09121
:1046C000F701F091F8010995CF91DF91FF91EF91FA
:1046D000BF91AF919F918F917F916F915F914F911A
:1046E0003F912F910F900FBE0F901F9018951F9222
:1046F0000F920FB60F9211242F933F934F935F9316
:104700006F937F938F939F93AF93BF93EF93FF9399
:10471000DF93CF93CDB7DEB78091F9019091FA0185
:10472000009729F0E091F901F091FA010995CF91F4
:10473000DF91FF91EF91BF91AF919F918F917F9109
:104740006F915F914F913F912F910F900FBE0F90FE
:104750001F901895DF93CF9300D00F92CDB7DEB79F
:104760001B821A821982ABE2B0E0EBE2F0E08081BA
:1047700082608C938B8180688B838B818F7B8B8312
:104780008B8180618B838B8180628B838B81826044
:104790008B838B8184608B83AAE2B0E0EAE2F0E055
:1047A00080818B7F8C938B8188608B83E0E4F0E049
:1047B0008B8180838091C5019091C6019A83898302
:1047C000E0E4F0E089819A81892F99278083E9E2EA
:1047D000F0E089818083AAE2B0E0EAE2F0E0808143
:1047E00080618C93AAE2B0E0EAE2F0E08081886028
:1047F0008C930F900F900F90CF91DF910895DF93DE
:10480000CF93CDB7DEB7AAE2B0E0EAE2F0E0808174
:1048100080688C93CF91DF910895DF93CF93CDB7CC
:10482000DEB7AAE2B0E0EAE2F0E080818F778C9315
:10483000CF91DF910895DF93CF93CDB7DEB7AAE292
:10484000B0E0EAE2F0E0808180648C93CF91DF9168
:104850000895DF93CF93CDB7DEB7AAE2B0E0EAE2E6
:10486000F0E080818F7B8C93CF91DF910895DF936F
:10487000CF9300D0CDB7DEB79A83898389819A819F
:104880009093FC018093FB010F900F90CF91DF91EB
:104890000895DF93CF9300D0CDB7DEB79A83898395
:1048A00089819A819093FE018093FD010F900F9072
:1048B000CF91DF9108951F920F920FB60F9211249E
:1048C0002F933F934F935F936F937F938F939F9318
:1048D000AF93BF93EF93FF93DF93CF93CDB7DEB743
:1048E0008091FB019091FC01009729F0E091FB0180
:1048F000F091FC010995CF91DF91FF91EF91BF916C
:10490000AF919F918F917F916F915F914F913F9167
:104910002F910F900FBE0F901F9018951F920F921E
:104920000FB60F9211242F933F934F935F936F9382
:104930007F938F939F93AF93BF93EF93FF93DF93F7
:10494000CF93CDB7DEB78091FD019091FE01009726
:1049500029F0E091FD01F091FE010995CF91DF91E1
:10496000FF91EF91BF91AF919F918F917F916F9147
:104970005F914F913F912F910F900FBE0F901F901D
:104980001895DF93CF930F92CDB7DEB78983ECE212
:10499000F0E0898180830F90CF91DF910895DF93BC
:1049A000CF93CDB7DEB7ECE2F0E08081CF91DF911D
:1049B0000895DF93CF930F92CDB7DEB78983EBE2F3
:1049C000F0E08081829586958770882F90E08170D5
:1049D00090700097A1F3ECE2F0E0898180830F9062
:1049E000CF91DF910895DF93CF93CDB7DEB7EBE2A0
:1049F000F0E080818823DCF7ECE2F0E08081CF9169
:104A0000DF910895DF93CF9300D00F92CDB7DEB73B
:104A10009B838A831982EBE2F0E0808188234CF447
:104A2000ECE2F0E08081EA81FB81808381E0898390
:104A300001C0198289810F900F900F90CF91DF9163
:104A40000895DF93CF93CDB7DEB7E9970FB6F8940B
:104A5000DEBF0FBECDBF89AF80E060E00E94251BA6
:104A600081E060E00E94251B89AD82958F70982FB0
:104A7000917083E0692F0E94251B89AD82958695F0
:104A80008770982F917084E0692F0E94251B89AD53
:104A90008295869586958370982F917085E0692F11
:104AA0000E94251B89AD982F991F9927991F86E091
:104AB000692F0E94251B82E061E00E94251B80E097
:104AC00090E0A0E0B0E48DAB9EABAFABB8AF6DA90A
:104AD0007EA98FA998AD20E030E04AEF54E40E940F
:104AE000040FDC01CB0189AB9AABABABBCAB69A9C2
:104AF0007AA98BA99CA920E030E040E85FE30E94FE
:104B00000A1188232CF481E090E098AB8FA73FC076
:104B100069A97AA98BA99CA920E03FEF4FE757E448
:104B20000E94AA1018164CF56DA97EA98FA998AD00
:104B300020E030E040E251E40E94040FDC01CB01B0
:104B4000BC01CD010E944900DC01CB0198AB8FA7CD
:104B50000FC088EC90E09EA78DA78DA59EA501971C
:104B6000F1F79EA78DA78FA598A9019798AB8FA75E
:104B70008FA598A9009769F714C069A97AA98BA98C
:104B80009CA90E944900DC01CB0198AB8FA78FA59F
:104B900098A99CA78BA78BA59CA50197F1F79CA72B
:104BA0008BA782E060E00E94251B80E090E0A0E0FF
:104BB000B0E48FA398A7A9A7BAA76FA178A589A5E4
:104BC0009AA520E030E04AEF54E40E94040FDC0193
:104BD000CB018BA39CA3ADA3BEA36BA17CA18DA194
:104BE0009EA120E030E040E85FE30E940A118823A4
:104BF0002CF481E090E09AA389A33FC06BA17CA133
:104C00008DA19EA120E03FEF4FE757E40E94AA103C
:104C100018164CF56FA178A589A59AA520E030E07B
:104C200040E251E40E94040FDC01CB01BC01CD0144
:104C30000E944900DC01CB019AA389A30FC088EC34
:104C400090E098A38F8F8F8D98A10197F1F798A38B
:104C50008F8F89A19AA101979AA389A389A19AA16B
:104C6000009769F714C06BA17CA18DA19EA10E9441
:104C70004900DC01CB019AA389A389A19AA19E8F47
:104C80008D8F8D8D9E8D0197F1F79E8F8D8F89ADC4
:104C9000982F917083E0692F0E94251B89AD86951E
:104CA000982F917084E0692F0E94251B89AD86950D
:104CB0008695982F917085E0692F0E94251B89ADFC
:104CC000869586958695982F917086E0692F0E942B
:104CD000251B82E061E00E94251B80E090E0A0E0BF
:104CE000B0E4898F9A8FAB8FBC8F698D7A8D8B8D55
:104CF0009C8D20E030E04AEF54E40E94040FDC0178
:104D0000CB018D8B9E8BAF8BB88F6D897E898F8900
:104D1000988D20E030E040E85FE30E940A1188238C
:104D20002CF481E090E09C8B8B8B3FC06D897E8959
:104D30008F89988D20E03FEF4FE757E40E94AA103B
:104D400018164CF5698D7A8D8B8D9C8D20E030E0A6
:104D500040E251E40E94040FDC01CB01BC01CD0113
:104D60000E944900DC01CB019C8B8B8B0FC088EC2F
:104D700090E09A8B898B89899A890197F1F79A8BB0
:104D8000898B8B899C8901979C8B8B8B8B899C89C8
:104D9000009769F714C06D897E898F89988D0E946C
:104DA0004900DC01CB019C8B8B8B8B899C89988B78
:104DB0008F878F8598890197F1F7988B8F8782E08D
:104DC00060E00E94251B80E090E0A0E0B0E48B87CB
:104DD0009C87AD87BE876B857C858D859E8520E011
:104DE00030E04AEF54E40E94040FDC01CB018F83D2
:104DF0009887A987BA876F81788589859A8520E009
:104E000030E040E85FE30E940A1188232CF481E03F
:104E100090E09E838D833FC06F81788589859A85D8
:104E200020E03FEF4FE757E40E94AA1018164CF518
:104E30006B857C858D859E8520E030E040E251E4E5
:104E40000E94040FDC01CB01BC01CD010E9449008E
:104E5000DC01CB019E838D830FC088EC90E09C83A6
:104E60008B838B819C810197F1F79C838B838D8150
:104E70009E8101979E838D838D819E81009769F726
:104E800014C06F81788589859A850E944900DC016C
:104E9000CB019E838D838D819E819A8389838981B5
:104EA0009A810197F1F79A838983E9960FB6F8946E
:104EB000DEBF0FBECDBFCF91DF910895DF93CF93BB
:104EC000CDB7DEB7E9970FB6F894DEBF0FBECDBF02
:104ED00089AF80E061E00E94251B81E060E00E94D4
:104EE000251B89AD82958F70982F917083E0692F73
:104EF0000E94251B89AD829586958770982F9170A9
:104F000084E0692F0E94251B89AD82958695869540
:104F10008370982F917085E0692F0E94251B89ADC1
:104F2000982F991F9927991F86E0692F0E94251BAA
:104F300082E061E00E94251B80E090E0A0E0B0E408
:104F40008DAB9EABAFABB8AF6DA97EA98FA998AD65
:104F500020E030E04AEF54E40E94040FDC01CB0172
:104F600089AB9AABABABBCAB69A97AA98BA99CA95D
:104F700020E030E040E85FE30E940A1188232CF42F
:104F800081E090E098AB8FA73FC069A97AA98BA96F
:104F90009CA920E03FEF4FE757E40E94AA101816A3
:104FA0004CF56DA97EA98FA998AD20E030E040E2D4
:104FB00051E40E94040FDC01CB01BC01CD010E9431
:104FC0004900DC01CB0198AB8FA70FC088EC90E0C3
:104FD0009EA78DA78DA59EA50197F1F79EA78DA7EA
:104FE0008FA598A9019798AB8FA78FA598A900972F
:104FF00069F714C069A97AA98BA99CA90E944900E4
:10500000DC01CB0198AB8FA78FA598A99CA78BA794
:105010008BA59CA50197F1F79CA78BA782E060E088
:105020000E94251B80E090E0A0E0B0E48FA398A749
:10503000A9A7BAA76FA178A589A59AA520E030E015
:105040004AEF54E40E94040FDC01CB018BA39CA324
:10505000ADA3BEA36BA17CA18DA19EA120E030E0F9
:1050600040E85FE30E940A1188232CF481E090E07D
:105070009AA389A33FC06BA17CA18DA19EA120E032
:105080003FEF4FE757E40E94AA1018164CF56FA1A6
:1050900078A589A59AA520E030E040E251E40E947D
:1050A000040FDC01CB01BC01CD010E944900DC01F1
:1050B000CB019AA389A30FC088EC90E098A38F8FAF
:1050C0008F8D98A10197F1F798A38F8F89A19AA14D
:1050D00001979AA389A389A19AA1009769F714C09F
:1050E0006BA17CA18DA19EA10E944900DC01CB0196
:1050F0009AA389A389A19AA19E8F8D8F8D8D9E8D54
:105100000197F1F79E8F8D8F89AD982F917083E075
:10511000692F0E94251B89AD8695982F917084E098
:10512000692F0E94251B89AD86958695982F9170D1
:1051300085E0692F0E94251B89AD86958695869509
:10514000982F917086E0692F0E94251B82E061E014
:105150000E94251B80E090E0A0E0B0E4898F9A8F48
:10516000AB8FBC8F698D7A8D8B8D9C8D20E030E06C
:105170004AEF54E40E94040FDC01CB018D8B9E8B1F
:10518000AF8BB88F6D897E898F89988D20E030E054
:1051900040E85FE30E940A1188232CF481E090E04C
:1051A0009C8B8B8B3FC06D897E898F89988D20E089
:1051B0003FEF4FE757E40E94AA1018164CF5698D8F
:1051C0007A8D8B8D9C8D20E030E040E251E40E948E
:1051D000040FDC01CB01BC01CD010E944900DC01C0
:1051E000CB019C8B8B8B0FC088EC90E09A8B898BCA
:1051F00089899A890197F1F79A8B898B8B899C8988
:1052000001979C8B8B8B8B899C89009769F714C0C5
:105210006D897E898F89988D0E944900DC01CB01C0
:105220009C8B8B8B8B899C89988B8F878F8598899A
:105230000197F1F7988B8F8782E060E00E94251B31
:1052400080E090E0A0E0B0E48B879C87AD87BE87CC
:105250006B857C858D859E8520E030E04AEF54E4A7
:105260000E94040FDC01CB018F839887A987BA873E
:105270006F81788589859A8520E030E040E85FE39A
:105280000E940A1188232CF481E090E09E838D8394
:105290003FC06F81788589859A8520E03FEF4FE791
:1052A00057E40E94AA1018164CF56B857C858D85F5
:1052B0009E8520E030E040E251E40E94040FDC01D2
:1052C000CB01BC01CD010E944900DC01CB019E83D2
:1052D0008D830FC088EC90E09C838B838B819C81B5
:1052E0000197F1F79C838B838D819E8101979E832B
:1052F0008D838D819E81009769F714C06F817885B9
:1053000089859A850E944900DC01CB019E838D83AB
:105310008D819E819A83898389819A810197F1F792
:105320009A838983E9960FB6F894DEBF0FBECDBF8E
:10533000CF91DF9108950F931F93DF93CF93CDB754
:10534000DEB7C654D0400FB6F894DEBF0FBECDBF57
:10535000FE01ED5BFF4F80E090E0A8E4B2E48083C3
:105360009183A283B3838E01015C1F4FFE01ED5B2D
:10537000FF4F608171818281938120E030E04AEFAC
:1053800054E40E94040FDC01CB01F8018083918377
:10539000A283B383FE01FF96608171818281938134
:1053A00020E030E040E85FE30E940A1188232CF4FB
:1053B00081E090E09EAF8DAF46C0FE01FF96608118
:1053C00071818281938120E03FEF4FE757E40E9493
:1053D000AA10181664F5FE01ED5BFF4F6081718124
:1053E0008281938120E030E040E251E40E94040F8A
:1053F000DC01CB01BC01CD010E944900DC01CB01E5
:105400009EAF8DAF0FC088EC90E09CAF8BAF8BADA3
:105410009CAD0197F1F79CAF8BAF8DAD9EAD019721
:105420009EAF8DAF8DAD9EAD009769F716C0FE01A2
:10543000FF9660817181828193810E944900DC0125
:10544000CB019EAF8DAF8DAD9EAD9AAF89AF89ADCB
:105450009AAD0197F1F79AAF89AF82E00E942125BA
:1054600080E090E0A0E8BFE38DAB9EABAFABB8AF00
:105470006DA97EA98FA998AD20E030E04AEF54E4F1
:105480000E94040FDC01CB0189AB9AABABABBCAB88
:1054900069A97AA98BA99CA920E030E040E85FE3E4
:1054A0000E940A1188232CF481E090E098AB8FA72A
:1054B0003FC069A97AA98BA99CA920E03FEF4FE7DB
:1054C00057E40E94AA1018164CF56DA97EA98FA961
:1054D00098AD20E030E040E251E40E94040FDC018E
:1054E000CB01BC01CD010E944900DC01CB0198AB8E
:1054F0008FA70FC088EC90E09EA78DA78DA59EA5D5
:105500000197F1F79EA78DA78FA598A9019798AB52
:105510008FA78FA598A9009769F714C069A97AA9E0
:105520008BA99CA90E944900DC01CB0198AB8FA7F5
:105530008FA598A99CA78BA78BA59CA50197F1F790
:105540009CA78BA788E20E94212580E090E0A0E83C
:10555000BFE38FA398A7A9A7BAA76FA178A589A52C
:105560009AA520E030E04AEF54E40E94040FDC01E9
:10557000CB018BA39CA3ADA3BEA36BA17CA18DA1EA
:105580009EA120E030E040E85FE30E940A118823FA
:105590002CF481E090E09AA389A33FC06BA17CA189
:1055A0008DA19EA120E03FEF4FE757E40E94AA1093
:1055B00018164CF56FA178A589A59AA520E030E0D2
:1055C00040E251E40E94040FDC01CB01BC01CD019B
:1055D0000E944900DC01CB019AA389A30FC088EC8B
:1055E00090E098A38F8F8F8D98A10197F1F798A3E2
:1055F0008F8F89A19AA101979AA389A389A19AA1C2
:10560000009769F714C06BA17CA18DA19EA10E9497
:105610004900DC01CB019AA389A389A19AA19E8F9D
:105620008D8F8D8D9E8D0197F1F79E8F8D8F8CE0E4
:105630000E94212580E090E0A0E8BFE3898F9A8F47
:10564000AB8FBC8F698D7A8D8B8D9C8D20E030E087
:105650004AEF54E40E94040FDC01CB018D8B9E8B3A
:10566000AF8BB88F6D897E898F89988D20E030E06F
:1056700040E85FE30E940A1188232CF481E090E067
:105680009C8B8B8B3FC06D897E898F89988D20E0A4
:105690003FEF4FE757E40E94AA1018164CF5698DAA
:1056A0007A8D8B8D9C8D20E030E040E251E40E94A9
:1056B000040FDC01CB01BC01CD010E944900DC01DB
:1056C000CB019C8B8B8B0FC088EC90E09A8B898BE5
:1056D00089899A890197F1F79A8B898B8B899C89A3
:1056E00001979C8B8B8B8B899C89009769F714C0E1
:1056F0006D897E898F89988D0E944900DC01CB01DC
:105700009C8B8B8B8B899C89988B8F878F859889B5
:105710000197F1F7988B8F8781E00E94212580E027
:1057200090E0A0EAB1E48B879C87AD87BE876B854C
:105730007C858D859E8520E030E04AEF54E40E9410
:10574000040FDC01CB018F839887A987BA876F810B
:10575000788589859A8520E030E040E85FE30E9403
:105760000A1188232CF481E090E09E838D833FC052
:105770006F81788589859A8520E03FEF4FE757E470
:105780000E94AA1018164CF56B857C858D859E8528
:1057900020E030E040E251E40E94040FDC01CB0144
:1057A000BC01CD010E944900DC01CB019E838D83A9
:1057B0000FC088EC90E09C838B838B819C81019748
:1057C000F1F79C838B838D819E8101979E838D83CE
:1057D0008D819E81009769F714C06F8178858985D6
:1057E0009A850E944900DC01CB019E838D838D81C7
:1057F0009E819A83898389819A810197F1F79A839F
:10580000898386E00E94212580E80E942125CA5BC9
:10581000DF4F0FB6F894DEBF0FBECDBFCF91DF9143
:105820001F910F910895DF93CF930F92CDB7DEB7FD
:10583000898389810E945E270F90CF91DF9108951F
:10584000DF93CF9300D00F92CDB7DEB79B838A83CF
:10585000198219820EC08981282F30E08A819B81AC
:10586000FC01E20FF31F80810E945E2789818F5F18
:1058700089838981282F30E08A819B81FC01E20F96
:10588000F31F8081882339F70F900F900F90CF91ED
:10589000DF910895DF93CF9300D0CDB7DEB7898332
:1058A0006A838981882341F48A81803178F48A81EE
:1058B00080580E9421250AC08981813039F48A816B
:1058C000803120F48A8180540E9421250F900F900E
:1058D000CF91DF9108958F929F92AF92BF92CF9216
:1058E000DF92EF92FF920F931F93DF93CF93CDB789
:1058F000DEB764970FB6F894DEBF0FBECDBF2D871D
:105900003E874F87588B698B7A8B8B8B9C8B1A8247
:105910008D859E85892B9F85892B9889892B9989CF
:10592000892B9A89892B9B89892B9C89892B882390
:1059300009F06DC080E30E945E2792C08A81882EA4
:105940009924AD84BE84CF84D888E988FA880B89ED
:105950001C892A2D3B2D4C2D5D2D6E2D7F2D802FEA
:10596000912F0F2EFAE0AF2EF02DBB24CC24DD2496
:10597000EE24FF2400E010E00E94EA06A22EB32EDF
:10598000C42ED52EE62EF72E082F192F2A2D3B2DAB
:105990004C2D5D2D6E2D7F2D802F912F822F282F46
:1059A000205DCE010396FC01E80DF91D2083AD8436
:1059B000BE84CF84D888E988FA880B891C892A2D6F
:1059C0003B2D4C2D5D2D6E2D7F2D802F912F0F2E79
:1059D000FAE0AF2EF02DBB24CC24DD24EE24FF24EE
:1059E00000E010E00E947500A22EB32EC42ED52E2A
:1059F000E62EF72E082F192FAD86BE86CF86D88AC1
:105A0000E98AFA8A0B8B1C8B8A818F5F8A838D854A
:105A10009E85892B9F85892B9889892B9989892B2C
:105A20009A89892B9B89892B9C89892B882309F04A
:105A300085CF8A81898311C08981882F90E09C015C
:105A400021503040CE010396FC01E20FF31F80810C
:105A50000E945E278981815089838981882361F72B
:105A600064960FB6F894DEBF0FBECDBFCF91DF9125
:105A70001F910F91FF90EF90DF90CF90BF90AF906C
:105A80009F908F900895DF93CF9300D0CDB7DEB76E
:105A90009A83898389819A8120E137E2B9010E9442
:105AA0009E3228EE33E0B9010E949E32CB01805D28
:105AB0000E945E2789819A8128EE33E0B9010E9415
:105AC0009E3224E630E0B9010E949E32CB01805D17
:105AD0000E945E2789819A8124E630E0B9010E9404
